{
  "contractName": "DAO",
  "abi": [
    {
      "inputs": [
        {
          "internalType": "uint256",
          "name": "_contributionTimeEnd",
          "type": "uint256"
        },
        {
          "internalType": "uint256",
          "name": "_voteTime",
          "type": "uint256"
        },
        {
          "internalType": "uint256",
          "name": "_quorum",
          "type": "uint256"
        }
      ],
      "stateMutability": "nonpayable",
      "type": "constructor"
    },
    {
      "inputs": [],
      "name": "availableFunds",
      "outputs": [
        {
          "internalType": "uint256",
          "name": "",
          "type": "uint256"
        }
      ],
      "stateMutability": "view",
      "type": "function",
      "constant": true
    },
    {
      "inputs": [],
      "name": "contributionTimeEnd",
      "outputs": [
        {
          "internalType": "uint256",
          "name": "",
          "type": "uint256"
        }
      ],
      "stateMutability": "view",
      "type": "function",
      "constant": true
    },
    {
      "inputs": [
        {
          "internalType": "uint256",
          "name": "",
          "type": "uint256"
        }
      ],
      "name": "investorsList",
      "outputs": [
        {
          "internalType": "address",
          "name": "",
          "type": "address"
        }
      ],
      "stateMutability": "view",
      "type": "function",
      "constant": true
    },
    {
      "inputs": [
        {
          "internalType": "address",
          "name": "",
          "type": "address"
        },
        {
          "internalType": "uint256",
          "name": "",
          "type": "uint256"
        }
      ],
      "name": "isVoted",
      "outputs": [
        {
          "internalType": "bool",
          "name": "",
          "type": "bool"
        }
      ],
      "stateMutability": "view",
      "type": "function",
      "constant": true
    },
    {
      "inputs": [],
      "name": "manager",
      "outputs": [
        {
          "internalType": "address",
          "name": "",
          "type": "address"
        }
      ],
      "stateMutability": "view",
      "type": "function",
      "constant": true
    },
    {
      "inputs": [],
      "name": "nextProposalId",
      "outputs": [
        {
          "internalType": "uint256",
          "name": "",
          "type": "uint256"
        }
      ],
      "stateMutability": "view",
      "type": "function",
      "constant": true
    },
    {
      "inputs": [
        {
          "internalType": "address",
          "name": "",
          "type": "address"
        }
      ],
      "name": "numOfshares",
      "outputs": [
        {
          "internalType": "uint256",
          "name": "",
          "type": "uint256"
        }
      ],
      "stateMutability": "view",
      "type": "function",
      "constant": true
    },
    {
      "inputs": [
        {
          "internalType": "uint256",
          "name": "",
          "type": "uint256"
        }
      ],
      "name": "proposals",
      "outputs": [
        {
          "internalType": "uint256",
          "name": "id",
          "type": "uint256"
        },
        {
          "internalType": "string",
          "name": "description",
          "type": "string"
        },
        {
          "internalType": "uint256",
          "name": "amount",
          "type": "uint256"
        },
        {
          "internalType": "address payable",
          "name": "receipient",
          "type": "address"
        },
        {
          "internalType": "uint256",
          "name": "votes",
          "type": "uint256"
        },
        {
          "internalType": "uint256",
          "name": "end",
          "type": "uint256"
        },
        {
          "internalType": "bool",
          "name": "isExecuted",
          "type": "bool"
        }
      ],
      "stateMutability": "view",
      "type": "function",
      "constant": true
    },
    {
      "inputs": [],
      "name": "quorum",
      "outputs": [
        {
          "internalType": "uint256",
          "name": "",
          "type": "uint256"
        }
      ],
      "stateMutability": "view",
      "type": "function",
      "constant": true
    },
    {
      "inputs": [],
      "name": "totalShares",
      "outputs": [
        {
          "internalType": "uint256",
          "name": "",
          "type": "uint256"
        }
      ],
      "stateMutability": "view",
      "type": "function",
      "constant": true
    },
    {
      "inputs": [],
      "name": "voteTime",
      "outputs": [
        {
          "internalType": "uint256",
          "name": "",
          "type": "uint256"
        }
      ],
      "stateMutability": "view",
      "type": "function",
      "constant": true
    },
    {
      "inputs": [],
      "name": "contribution",
      "outputs": [],
      "stateMutability": "payable",
      "type": "function",
      "payable": true
    },
    {
      "inputs": [
        {
          "internalType": "uint256",
          "name": "amount",
          "type": "uint256"
        }
      ],
      "name": "reedemShare",
      "outputs": [],
      "stateMutability": "nonpayable",
      "type": "function"
    },
    {
      "inputs": [
        {
          "internalType": "uint256",
          "name": "amount",
          "type": "uint256"
        },
        {
          "internalType": "address",
          "name": "to",
          "type": "address"
        }
      ],
      "name": "transferShare",
      "outputs": [],
      "stateMutability": "nonpayable",
      "type": "function"
    },
    {
      "inputs": [
        {
          "internalType": "string",
          "name": "description",
          "type": "string"
        },
        {
          "internalType": "uint256",
          "name": "amount",
          "type": "uint256"
        },
        {
          "internalType": "address payable",
          "name": "receipient",
          "type": "address"
        }
      ],
      "name": "createProposal",
      "outputs": [],
      "stateMutability": "nonpayable",
      "type": "function"
    },
    {
      "inputs": [
        {
          "internalType": "uint256",
          "name": "proposalId",
          "type": "uint256"
        }
      ],
      "name": "voteProposal",
      "outputs": [],
      "stateMutability": "nonpayable",
      "type": "function"
    },
    {
      "inputs": [
        {
          "internalType": "uint256",
          "name": "proposalId",
          "type": "uint256"
        }
      ],
      "name": "executeProposal",
      "outputs": [],
      "stateMutability": "nonpayable",
      "type": "function"
    },
    {
      "inputs": [],
      "name": "ProposalList",
      "outputs": [
        {
          "components": [
            {
              "internalType": "uint256",
              "name": "id",
              "type": "uint256"
            },
            {
              "internalType": "string",
              "name": "description",
              "type": "string"
            },
            {
              "internalType": "uint256",
              "name": "amount",
              "type": "uint256"
            },
            {
              "internalType": "address payable",
              "name": "receipient",
              "type": "address"
            },
            {
              "internalType": "uint256",
              "name": "votes",
              "type": "uint256"
            },
            {
              "internalType": "uint256",
              "name": "end",
              "type": "uint256"
            },
            {
              "internalType": "bool",
              "name": "isExecuted",
              "type": "bool"
            }
          ],
          "internalType": "struct DAO.Proposal[]",
          "name": "",
          "type": "tuple[]"
        }
      ],
      "stateMutability": "view",
      "type": "function",
      "constant": true
    },
    {
      "inputs": [],
      "name": "InvestorList",
      "outputs": [
        {
          "internalType": "address[]",
          "name": "",
          "type": "address[]"
        }
      ],
      "stateMutability": "view",
      "type": "function",
      "constant": true
    }
  ],
  "bytecode": "0x60806040523480156200001157600080fd5b5060405162002ac538038062002ac5833981810160405281019062000037919062000136565b600081118015620000485750606481105b6200008a576040517f08c379a00000000000000000000000000000000000000000000000000000000081526004016200008190620001f3565b60405180910390fd5b824262000098919062000244565b6007819055508160098190555080600a8190555033600b60006101000a81548173ffffffffffffffffffffffffffffffffffffffff021916908373ffffffffffffffffffffffffffffffffffffffff1602179055505050506200027f565b600080fd5b6000819050919050565b6200011081620000fb565b81146200011c57600080fd5b50565b600081519050620001308162000105565b92915050565b600080600060608486031215620001525762000151620000f6565b5b600062000162868287016200011f565b935050602062000175868287016200011f565b925050604062000188868287016200011f565b9150509250925092565b600082825260208201905092915050565b7f4e6f742076616c69642076616c75657300000000000000000000000000000000600082015250565b6000620001db60108362000192565b9150620001e882620001a3565b602082019050919050565b600060208201905081810360008301526200020e81620001cc565b9050919050565b7f4e487b7100000000000000000000000000000000000000000000000000000000600052601160045260246000fd5b60006200025182620000fb565b91506200025e83620000fb565b925082820190508082111562000279576200027862000215565b5b92915050565b612836806200028f6000396000f3fe6080604052600436106101145760003560e01c806350520b1f116100a0578063afc8275b11610064578063afc8275b14610386578063bcf93dd6146103b1578063c1188cff146103dc578063df18b7f414610405578063e65da4291461043057610114565b806350520b1f146102c25780636ac1e01f146102cc5780636dfc1099146102f5578063807896d5146103205780638ee36f051461034957610114565b80632ab09d14116100e75780632ab09d14146101d95780632ccc8727146102045780633a98ef391461024157806346fcff4c1461026c578063481c6a751461029757610114565b8063013cf08b14610119578063039383e61461015c5780630d61b519146101855780631703a018146101ae575b600080fd5b34801561012557600080fd5b50610140600480360381019061013b9190611820565b61046d565b6040516101539796959493929190611948565b60405180910390f35b34801561016857600080fd5b50610183600480360381019061017e91906119fc565b610564565b005b34801561019157600080fd5b506101ac60048036038101906101a79190611820565b6108c6565b005b3480156101ba57600080fd5b506101c3610a3f565b6040516101d09190611a3c565b60405180910390f35b3480156101e557600080fd5b506101ee610a45565b6040516101fb9190611a3c565b60405180910390f35b34801561021057600080fd5b5061022b60048036038101906102269190611820565b610a4b565b6040516102389190611a66565b60405180910390f35b34801561024d57600080fd5b50610256610a8a565b6040516102639190611a3c565b60405180910390f35b34801561027857600080fd5b50610281610a90565b60405161028e9190611a3c565b60405180910390f35b3480156102a357600080fd5b506102ac610a96565b6040516102b99190611a66565b60405180910390f35b6102ca610abc565b005b3480156102d857600080fd5b506102f360048036038101906102ee9190611b12565b610cc0565b005b34801561030157600080fd5b5061030a610f10565b6040516103179190611d5b565b60405180910390f35b34801561032c57600080fd5b5061034760048036038101906103429190611820565b6110fb565b005b34801561035557600080fd5b50610370600480360381019061036b9190611d7d565b6113ae565b60405161037d9190611dbd565b60405180910390f35b34801561039257600080fd5b5061039b6113dd565b6040516103a89190611a3c565b60405180910390f35b3480156103bd57600080fd5b506103c66113e3565b6040516103d39190611a3c565b60405180910390f35b3480156103e857600080fd5b5061040360048036038101906103fe9190611820565b6113e9565b005b34801561041157600080fd5b5061041a61169a565b6040516104279190611e96565b60405180910390f35b34801561043c57600080fd5b5061045760048036038101906104529190611eb8565b611728565b6040516104649190611a3c565b60405180910390f35b600460205280600052604060002060009150905080600001549080600101805461049690611f14565b80601f01602080910402602001604051908101604052809291908181526020018280546104c290611f14565b801561050f5780601f106104e45761010080835404028352916020019161050f565b820191906000526020600020905b8154815290600101906020018083116104f257829003601f168201915b5050505050908060020154908060030160009054906101000a900473ffffffffffffffffffffffffffffffffffffffff16908060040154908060050154908060060160009054906101000a900460ff16905087565b600115156000803373ffffffffffffffffffffffffffffffffffffffff1673ffffffffffffffffffffffffffffffffffffffff16815260200190815260200160002060009054906101000a900460ff161515146105f6576040517f08c379a00000000000000000000000000000000000000000000000000000000081526004016105ed90611f91565b60405180910390fd5b81600654101561063b576040517f08c379a000000000000000000000000000000000000000000000000000000000815260040161063290611ffd565b60405180910390fd5b81600160003373ffffffffffffffffffffffffffffffffffffffff1673ffffffffffffffffffffffffffffffffffffffff1681526020019081526020016000205410156106bd576040517f08c379a00000000000000000000000000000000000000000000000000000000081526004016106b490612069565b60405180910390fd5b81600160003373ffffffffffffffffffffffffffffffffffffffff1673ffffffffffffffffffffffffffffffffffffffff168152602001908152602001600020600082825461070c91906120b8565b925050819055506000600160003373ffffffffffffffffffffffffffffffffffffffff1673ffffffffffffffffffffffffffffffffffffffff16815260200190815260200160002054036107b25760008060003373ffffffffffffffffffffffffffffffffffffffff1673ffffffffffffffffffffffffffffffffffffffff16815260200190815260200160002060006101000a81548160ff0219169083151502179055505b81600160008373ffffffffffffffffffffffffffffffffffffffff1673ffffffffffffffffffffffffffffffffffffffff168152602001908152602001600020600082825461080191906120ec565b9250508190555060016000808373ffffffffffffffffffffffffffffffffffffffff1673ffffffffffffffffffffffffffffffffffffffff16815260200190815260200160002060006101000a81548160ff0219169083151502179055506003819080600181540180825580915050600190039060005260206000200160009091909190916101000a81548173ffffffffffffffffffffffffffffffffffffffff021916908373ffffffffffffffffffffffffffffffffffffffff1602179055505050565b3373ffffffffffffffffffffffffffffffffffffffff16600b60009054906101000a900473ffffffffffffffffffffffffffffffffffffffff1673ffffffffffffffffffffffffffffffffffffffff1614610956576040517f08c379a000000000000000000000000000000000000000000000000000000000815260040161094d9061216c565b60405180910390fd5b6000600460008381526020019081526020016000209050600a5460055460648360040154610984919061218c565b61098e91906121fd565b10156109cf576040517f08c379a00000000000000000000000000000000000000000000000000000000081526004016109c69061227a565b60405180910390fd5b60018160060160006101000a81548160ff021916908315150217905550806002015460066000828254610a0291906120b8565b92505081905550610a3b81600201548260030160009054906101000a900473ffffffffffffffffffffffffffffffffffffffff16611740565b5050565b600a5481565b60085481565b60038181548110610a5b57600080fd5b906000526020600020016000915054906101000a900473ffffffffffffffffffffffffffffffffffffffff1681565b60055481565b60065481565b600b60009054906101000a900473ffffffffffffffffffffffffffffffffffffffff1681565b426007541015610b01576040517f08c379a0000000000000000000000000000000000000000000000000000000008152600401610af8906122e6565b60405180910390fd5b60003411610b44576040517f08c379a0000000000000000000000000000000000000000000000000000000008152600401610b3b90612352565b60405180910390fd5b60016000803373ffffffffffffffffffffffffffffffffffffffff1673ffffffffffffffffffffffffffffffffffffffff16815260200190815260200160002060006101000a81548160ff02191690831515021790555034600160003373ffffffffffffffffffffffffffffffffffffffff1673ffffffffffffffffffffffffffffffffffffffff16815260200190815260200160002054610be691906120ec565b600160003373ffffffffffffffffffffffffffffffffffffffff1673ffffffffffffffffffffffffffffffffffffffff168152602001908152602001600020819055503460056000828254610c3b91906120ec565b925050819055503460066000828254610c5491906120ec565b925050819055506003339080600181540180825580915050600190039060005260206000200160009091909190916101000a81548173ffffffffffffffffffffffffffffffffffffffff021916908373ffffffffffffffffffffffffffffffffffffffff160217905550565b3373ffffffffffffffffffffffffffffffffffffffff16600b60009054906101000a900473ffffffffffffffffffffffffffffffffffffffff1673ffffffffffffffffffffffffffffffffffffffff1614610d50576040517f08c379a0000000000000000000000000000000000000000000000000000000008152600401610d479061216c565b60405180910390fd5b816006541015610d95576040517f08c379a0000000000000000000000000000000000000000000000000000000008152600401610d8c90611ffd565b60405180910390fd5b6040518060e00160405280600854815260200185858080601f016020809104026020016040519081016040528093929190818152602001838380828437600081840152601f19601f8201169050808301925050505050505081526020018381526020018273ffffffffffffffffffffffffffffffffffffffff1681526020016000815260200160095442610e2991906120ec565b815260200160001515815250600460006008548152602001908152602001600020600082015181600001556020820151816001019081610e69919061254d565b506040820151816002015560608201518160030160006101000a81548173ffffffffffffffffffffffffffffffffffffffff021916908373ffffffffffffffffffffffffffffffffffffffff1602179055506080820151816004015560a0820151816005015560c08201518160060160006101000a81548160ff02191690831515021790555090505060086000815480929190610f059061261f565b919050555050505050565b6060600060085467ffffffffffffffff811115610f3057610f2f612372565b5b604051908082528060200260200182016040528015610f6957816020015b610f5661178b565b815260200190600190039081610f4e5790505b50905060005b6008548110156110f357600460008281526020019081526020016000206040518060e001604052908160008201548152602001600182018054610fb190611f14565b80601f0160208091040260200160405190810160405280929190818152602001828054610fdd90611f14565b801561102a5780601f10610fff5761010080835404028352916020019161102a565b820191906000526020600020905b81548152906001019060200180831161100d57829003601f168201915b50505050508152602001600282015481526020016003820160009054906101000a900473ffffffffffffffffffffffffffffffffffffffff1673ffffffffffffffffffffffffffffffffffffffff1673ffffffffffffffffffffffffffffffffffffffff16815260200160048201548152602001600582015481526020016006820160009054906101000a900460ff1615151515815250508282815181106110d5576110d4612667565b5b602002602001018190525080806110eb9061261f565b915050610f6f565b508091505090565b600115156000803373ffffffffffffffffffffffffffffffffffffffff1673ffffffffffffffffffffffffffffffffffffffff16815260200190815260200160002060009054906101000a900460ff1615151461118d576040517f08c379a000000000000000000000000000000000000000000000000000000000815260040161118490611f91565b60405180910390fd5b600060046000838152602001908152602001600020905060001515600260003373ffffffffffffffffffffffffffffffffffffffff1673ffffffffffffffffffffffffffffffffffffffff168152602001908152602001600020600084815260200190815260200160002060009054906101000a900460ff16151514611248576040517f08c379a000000000000000000000000000000000000000000000000000000000815260040161123f90612708565b60405180910390fd5b428160050154101561128f576040517f08c379a000000000000000000000000000000000000000000000000000000000815260040161128690612774565b60405180910390fd5b600015158160060160009054906101000a900460ff161515146112e7576040517f08c379a00000000000000000000000000000000000000000000000000000000081526004016112de906127e0565b60405180910390fd5b6001600260003373ffffffffffffffffffffffffffffffffffffffff1673ffffffffffffffffffffffffffffffffffffffff168152602001908152602001600020600084815260200190815260200160002060006101000a81548160ff021916908315150217905550600160003373ffffffffffffffffffffffffffffffffffffffff1673ffffffffffffffffffffffffffffffffffffffff168152602001908152602001600020548160040160008282546113a391906120ec565b925050819055505050565b60026020528160005260406000206020528060005260406000206000915091509054906101000a900460ff1681565b60075481565b60095481565b600115156000803373ffffffffffffffffffffffffffffffffffffffff1673ffffffffffffffffffffffffffffffffffffffff16815260200190815260200160002060009054906101000a900460ff1615151461147b576040517f08c379a000000000000000000000000000000000000000000000000000000000815260040161147290611f91565b60405180910390fd5b80600160003373ffffffffffffffffffffffffffffffffffffffff1673ffffffffffffffffffffffffffffffffffffffff1681526020019081526020016000205410156114fd576040517f08c379a00000000000000000000000000000000000000000000000000000000081526004016114f490612069565b60405180910390fd5b806006541015611542576040517f08c379a000000000000000000000000000000000000000000000000000000000815260040161153990611ffd565b60405180910390fd5b80600160003373ffffffffffffffffffffffffffffffffffffffff1673ffffffffffffffffffffffffffffffffffffffff168152602001908152602001600020600082825461159191906120b8565b925050819055506000600160003373ffffffffffffffffffffffffffffffffffffffff1673ffffffffffffffffffffffffffffffffffffffff16815260200190815260200160002054036116375760008060003373ffffffffffffffffffffffffffffffffffffffff1673ffffffffffffffffffffffffffffffffffffffff16815260200190815260200160002060006101000a81548160ff0219169083151502179055505b806006600082825461164991906120b8565b925050819055503373ffffffffffffffffffffffffffffffffffffffff166108fc829081150290604051600060405180830381858888f19350505050158015611696573d6000803e3d6000fd5b5050565b6060600380548060200260200160405190810160405280929190818152602001828054801561171e57602002820191906000526020600020905b8160009054906101000a900473ffffffffffffffffffffffffffffffffffffffff1673ffffffffffffffffffffffffffffffffffffffff16815260200190600101908083116116d4575b5050505050905090565b60016020528060005260406000206000915090505481565b8073ffffffffffffffffffffffffffffffffffffffff166108fc839081150290604051600060405180830381858888f19350505050158015611786573d6000803e3d6000fd5b505050565b6040518060e00160405280600081526020016060815260200160008152602001600073ffffffffffffffffffffffffffffffffffffffff16815260200160008152602001600081526020016000151581525090565b600080fd5b600080fd5b6000819050919050565b6117fd816117ea565b811461180857600080fd5b50565b60008135905061181a816117f4565b92915050565b600060208284031215611836576118356117e0565b5b60006118448482850161180b565b91505092915050565b611856816117ea565b82525050565b600081519050919050565b600082825260208201905092915050565b60005b8381101561189657808201518184015260208101905061187b565b60008484015250505050565b6000601f19601f8301169050919050565b60006118be8261185c565b6118c88185611867565b93506118d8818560208601611878565b6118e1816118a2565b840191505092915050565b600073ffffffffffffffffffffffffffffffffffffffff82169050919050565b6000611917826118ec565b9050919050565b6119278161190c565b82525050565b60008115159050919050565b6119428161192d565b82525050565b600060e08201905061195d600083018a61184d565b818103602083015261196f81896118b3565b905061197e604083018861184d565b61198b606083018761191e565b611998608083018661184d565b6119a560a083018561184d565b6119b260c0830184611939565b98975050505050505050565b60006119c9826118ec565b9050919050565b6119d9816119be565b81146119e457600080fd5b50565b6000813590506119f6816119d0565b92915050565b60008060408385031215611a1357611a126117e0565b5b6000611a218582860161180b565b9250506020611a32858286016119e7565b9150509250929050565b6000602082019050611a51600083018461184d565b92915050565b611a60816119be565b82525050565b6000602082019050611a7b6000830184611a57565b92915050565b600080fd5b600080fd5b600080fd5b60008083601f840112611aa657611aa5611a81565b5b8235905067ffffffffffffffff811115611ac357611ac2611a86565b5b602083019150836001820283011115611adf57611ade611a8b565b5b9250929050565b611aef8161190c565b8114611afa57600080fd5b50565b600081359050611b0c81611ae6565b92915050565b60008060008060608587031215611b2c57611b2b6117e0565b5b600085013567ffffffffffffffff811115611b4a57611b496117e5565b5b611b5687828801611a90565b94509450506020611b698782880161180b565b9250506040611b7a87828801611afd565b91505092959194509250565b600081519050919050565b600082825260208201905092915050565b6000819050602082019050919050565b611bbb816117ea565b82525050565b600082825260208201905092915050565b6000611bdd8261185c565b611be78185611bc1565b9350611bf7818560208601611878565b611c00816118a2565b840191505092915050565b611c148161190c565b82525050565b611c238161192d565b82525050565b600060e083016000830151611c416000860182611bb2565b5060208301518482036020860152611c598282611bd2565b9150506040830151611c6e6040860182611bb2565b506060830151611c816060860182611c0b565b506080830151611c946080860182611bb2565b5060a0830151611ca760a0860182611bb2565b5060c0830151611cba60c0860182611c1a565b508091505092915050565b6000611cd18383611c29565b905092915050565b6000602082019050919050565b6000611cf182611b86565b611cfb8185611b91565b935083602082028501611d0d85611ba2565b8060005b85811015611d495784840389528151611d2a8582611cc5565b9450611d3583611cd9565b925060208a01995050600181019050611d11565b50829750879550505050505092915050565b60006020820190508181036000830152611d758184611ce6565b905092915050565b60008060408385031215611d9457611d936117e0565b5b6000611da2858286016119e7565b9250506020611db38582860161180b565b9150509250929050565b6000602082019050611dd26000830184611939565b92915050565b600081519050919050565b600082825260208201905092915050565b6000819050602082019050919050565b611e0d816119be565b82525050565b6000611e1f8383611e04565b60208301905092915050565b6000602082019050919050565b6000611e4382611dd8565b611e4d8185611de3565b9350611e5883611df4565b8060005b83811015611e89578151611e708882611e13565b9750611e7b83611e2b565b925050600181019050611e5c565b5085935050505092915050565b60006020820190508181036000830152611eb08184611e38565b905092915050565b600060208284031215611ece57611ecd6117e0565b5b6000611edc848285016119e7565b91505092915050565b7f4e487b7100000000000000000000000000000000000000000000000000000000600052602260045260246000fd5b60006002820490506001821680611f2c57607f821691505b602082108103611f3f57611f3e611ee5565b5b50919050565b7f596f7520617265206e6f7420616e20696e766573746f72000000000000000000600082015250565b6000611f7b601783611867565b9150611f8682611f45565b602082019050919050565b60006020820190508181036000830152611faa81611f6e565b9050919050565b7f4e6f7420656e6f7567682066756e647300000000000000000000000000000000600082015250565b6000611fe7601083611867565b9150611ff282611fb1565b602082019050919050565b6000602082019050818103600083015261201681611fda565b9050919050565b7f596f7520646f6e2774206861766520656e6f7567682073686172657300000000600082015250565b6000612053601c83611867565b915061205e8261201d565b602082019050919050565b6000602082019050818103600083015261208281612046565b9050919050565b7f4e487b7100000000000000000000000000000000000000000000000000000000600052601160045260246000fd5b60006120c3826117ea565b91506120ce836117ea565b92508282039050818111156120e6576120e5612089565b5b92915050565b60006120f7826117ea565b9150612102836117ea565b925082820190508082111561211a57612119612089565b5b92915050565b7f596f7520617265206e6f742061206d616e616765720000000000000000000000600082015250565b6000612156601583611867565b915061216182612120565b602082019050919050565b6000602082019050818103600083015261218581612149565b9050919050565b6000612197826117ea565b91506121a2836117ea565b92508282026121b0816117ea565b915082820484148315176121c7576121c6612089565b5b5092915050565b7f4e487b7100000000000000000000000000000000000000000000000000000000600052601260045260246000fd5b6000612208826117ea565b9150612213836117ea565b925082612223576122226121ce565b5b828204905092915050565b7f4d616a6f7269747920646f6573206e6f7420737570706f727400000000000000600082015250565b6000612264601983611867565b915061226f8261222e565b602082019050919050565b6000602082019050818103600083015261229381612257565b9050919050565b7f436f6e747269627574696f6e2054696d6520456e646564000000000000000000600082015250565b60006122d0601783611867565b91506122db8261229a565b602082019050919050565b600060208201905081810360008301526122ff816122c3565b9050919050565b7f53656e64206d6f7265207468616e203020657468657200000000000000000000600082015250565b600061233c601683611867565b915061234782612306565b602082019050919050565b6000602082019050818103600083015261236b8161232f565b9050919050565b7f4e487b7100000000000000000000000000000000000000000000000000000000600052604160045260246000fd5b60008190508160005260206000209050919050565b60006020601f8301049050919050565b600082821b905092915050565b6000600883026124037fffffffffffffffffffffffffffffffffffffffffffffffffffffffffffffffff826123c6565b61240d86836123c6565b95508019841693508086168417925050509392505050565b6000819050919050565b600061244a612445612440846117ea565b612425565b6117ea565b9050919050565b6000819050919050565b6124648361242f565b61247861247082612451565b8484546123d3565b825550505050565b600090565b61248d612480565b61249881848461245b565b505050565b5b818110156124bc576124b1600082612485565b60018101905061249e565b5050565b601f821115612501576124d2816123a1565b6124db846123b6565b810160208510156124ea578190505b6124fe6124f6856123b6565b83018261249d565b50505b505050565b600082821c905092915050565b600061252460001984600802612506565b1980831691505092915050565b600061253d8383612513565b9150826002028217905092915050565b6125568261185c565b67ffffffffffffffff81111561256f5761256e612372565b5b6125798254611f14565b6125848282856124c0565b600060209050601f8311600181146125b757600084156125a5578287015190505b6125af8582612531565b865550612617565b601f1984166125c5866123a1565b60005b828110156125ed578489015182556001820191506020850194506020810190506125c8565b8683101561260a5784890151612606601f891682612513565b8355505b6001600288020188555050505b505050505050565b600061262a826117ea565b91507fffffffffffffffffffffffffffffffffffffffffffffffffffffffffffffffff820361265c5761265b612089565b5b600182019050919050565b7f4e487b7100000000000000000000000000000000000000000000000000000000600052603260045260246000fd5b7f596f75206861766520616c726561647920766f74656420666f7220746869732060008201527f70726f706f73616c000000000000000000000000000000000000000000000000602082015250565b60006126f2602883611867565b91506126fd82612696565b604082019050919050565b60006020820190508181036000830152612721816126e5565b9050919050565b7f566f74696e672054696d6520456e646564000000000000000000000000000000600082015250565b600061275e601183611867565b915061276982612728565b602082019050919050565b6000602082019050818103600083015261278d81612751565b9050919050565b7f497420697320616c726561647920657865637574656400000000000000000000600082015250565b60006127ca601683611867565b91506127d582612794565b602082019050919050565b600060208201905081810360008301526127f9816127bd565b905091905056fea26469706673582212208c0f9ed516e80c4bbf2a1aee1cb4dfb732fe89d39275168344793df0f0b449be64736f6c63430008120033",
  "immutableReferences": {},
  "source": "// SPDX-License-Identifier: GPL-3.0\r\n\r\npragma solidity >=0.7.0 <0.9.0;\r\n\r\ncontract DAO {\r\nstruct Proposal{\r\nuint id;\r\nstring description;\r\nuint amount;\r\naddress payable receipient;\r\nuint votes;\r\nuint end;\r\nbool isExecuted;\r\n}\r\n\r\nmapping(address=>bool) private isInvestor;\r\nmapping(address=>uint) public numOfshares;\r\nmapping(address=>mapping(uint=>bool)) public isVoted;\r\naddress[] public investorsList;\r\nmapping(uint=>Proposal) public proposals;\r\nuint public totalShares;\r\nuint public availableFunds;\r\nuint public contributionTimeEnd;\r\nuint public nextProposalId;\r\nuint public voteTime;\r\nuint public quorum;\r\naddress public manager;\r\n\r\n//value passed using truffle migration file\r\nconstructor(uint _contributionTimeEnd,uint _voteTime,uint _quorum){\r\nrequire(_quorum>0 && _quorum<100,\"Not valid values\");\r\ncontributionTimeEnd=block.timestamp+_contributionTimeEnd; //16342343342 + 2*3600\r\nvoteTime=_voteTime;\r\nquorum=_quorum;\r\nmanager=msg.sender;\r\n}\r\n\r\nmodifier onlyInvestor(){\r\nrequire(isInvestor[msg.sender]==true,\"You are not an investor\");\r\n_;\r\n}\r\nmodifier onlyManager(){\r\nrequire(manager==msg.sender,\"You are not a manager\");\r\n_;\r\n}\r\n\r\n\r\n\r\nfunction contribution() public payable{\r\nrequire(contributionTimeEnd>=block.timestamp,\"Contribution Time Ended\");//5 PM , //16342343342 + 2*3600 > 16342340000\r\nrequire(msg.value>0,\"Send more than 0 ether\");\r\nisInvestor[msg.sender]=true;\r\nnumOfshares[msg.sender]=numOfshares[msg.sender]+msg.value;\r\ntotalShares+=msg.value; //totaltShares=totalShares+msg.value\r\navailableFunds+=msg.value;\r\ninvestorsList.push(msg.sender);\r\n}\r\n\r\nfunction reedemShare(uint amount) public onlyInvestor(){\r\nrequire(numOfshares[msg.sender]>=amount,\"You don't have enough shares\");\r\nrequire(availableFunds>=amount,\"Not enough funds\");\r\nnumOfshares[msg.sender]-=amount;\r\nif(numOfshares[msg.sender]==0){\r\nisInvestor[msg.sender]=false;\r\n}\r\navailableFunds-=amount;\r\npayable(msg.sender).transfer(amount);//transferring of ether\r\n}\r\n\r\n//investor's address share will get transfered \"to\" address\r\n\r\nfunction transferShare(uint amount,address to) public onlyInvestor(){\r\nrequire(availableFunds>=amount,\"Not enough funds\");\r\nrequire(numOfshares[msg.sender]>=amount,\"You don't have enough shares\");\r\nnumOfshares[msg.sender]-=amount;\r\nif(numOfshares[msg.sender]==0){\r\nisInvestor[msg.sender]=false;\r\n}\r\nnumOfshares[to]+=amount;\r\nisInvestor[to]=true;\r\ninvestorsList.push(to);\r\n}\r\n\r\n\r\n\r\nfunction createProposal(string calldata description,uint amount,address payable receipient) public onlyManager{\r\nrequire(availableFunds>=amount,\"Not enough funds\");\r\nproposals[nextProposalId]=Proposal(nextProposalId,description,\r\namount,receipient,0,block.timestamp+voteTime,false);\r\nnextProposalId++;\r\n}\r\n\r\n\r\n\r\nfunction voteProposal(uint proposalId) public onlyInvestor(){\r\nProposal storage proposal = proposals[proposalId];\r\nrequire(isVoted[msg.sender][proposalId]==false,\"You have already voted for this proposal\");\r\nrequire(proposal.end>=block.timestamp,\"Voting Time Ended\");\r\nrequire(proposal.isExecuted==false,\"It is already executed\");\r\nisVoted[msg.sender][proposalId]=true;\r\nproposal.votes+=numOfshares[msg.sender];//proposal.votes=proposal.votes+numOfshares[msg.sender]\r\n}\r\n\r\n\r\nfunction executeProposal(uint proposalId) public onlyManager(){\r\nProposal storage proposal=proposals[proposalId];\r\nrequire(((proposal.votes*100)/totalShares)>=quorum,\"Majority does not support\");\r\nproposal.isExecuted=true;\r\navailableFunds-=proposal.amount;\r\n_transfer(proposal.amount,proposal.receipient);\r\n}\r\n\r\nfunction _transfer(uint amount,address payable receipient) private{\r\nreceipient.transfer(amount);\r\n}\r\n\r\n\r\nfunction ProposalList() public view returns(Proposal[] memory){\r\nProposal[] memory arr = new Proposal[](nextProposalId);//empty array of length=nextProposalId-1\r\nfor(uint i=0;i<nextProposalId;i++){\r\narr[i]=proposals[i];\r\n}\r\nreturn arr;\r\n}\r\nfunction InvestorList() public view returns(address[] memory){\r\n  \r\n  return investorsList;\r\n}\r\n}\r\n\r\n",
  "sourcePath": "H:\\Intel\\DAO_DAPP\\Project\\contracts\\dao.sol",
  "compiler": {
    "name": "solc",
    "version": "0.8.18+commit.87f61d96.Emscripten.clang"
  },
  "schemaVersion": "3.4.12",
  "updatedAt": "2023-04-11T19:04:14.300Z",
  "networkType": "ethereum",
  "devdoc": {
    "kind": "dev",
    "methods": {},
    "version": 1
  },
  "userdoc": {
    "kind": "user",
    "methods": {},
    "version": 1
  }
}